:100000000C942A000C943C000C943C000C943C0092
:100010000C943C000C943C000C943C000C943C0070
:100020000C943C000C943C000C943C000C943C0060
:100030000C943C000C943C000C943C000C943C0050
:100040000C943C000C943C000C943C000C943C0040
:100050000C943C0011241FBECFE5D8E0DEBFCDBF1D
:1000600010E0A0E6B0E001C01D92A136B107E1F7B3
:100070000E9464000C9482000C94000082B984E415
:1000800086BF06B607FEFDCF81B1887F8036E1F7D7
:10009000089590E024EC13C026BF06B607FEFDCFFE
:1000A00081B1887F803A51F081B1887F8038E1F753
:1000B00083B1E92FF0E0E05AFF4F80839F5F81B169
:1000C000887F803A49F708958FEF8ABB80E20E94CB
:1000D0003E000E94490020E048EC50E009C0EBBB24
:1000E00080E197E2FA013197F1F70197D9F72F5F95
:1000F000E22FF0E0E05AFF4FE081EE2381F780E04D
:0801000090E00895F894FFCF90
:00000001FF
